:10000000A0C00000BAC00000B8C00000B6C0000028
:10001000B4C00000B2C00000B0C00000AEC000001C
:10002000ACC00000ABC00000DAC20000A3C30000F7
:10003000A4C00000A2C00000A0C000009EC000003C
:100040009CC00000D5C0000098C0000096C0000011
:1000500094C0000092C0000090C000008EC000005C
:100060008CC000008AC0000088C0000086C000006C
:1000700084C0000082C0000080C000007EC000007C
:100080007CC000007AC0000078C0000076C000008C
:1000900074C0000072C0000070C000006EC000009C
:1000A0006CC000006AC0000068C0000026034C005D
:1000B00055004600410020004400750061006C00BE
:1000C00020004300440043002000440065006D0010
:1000D0006F00000018034400650061006E002000FE
:1000E000430061006D0065007200610000000403C0
:1000F000090409023E00020100C0320904000001A7
:100100000202010005240010010424020605240651
:100110000001070582030800FF09040100020A002C
:100120000000070504021000050705830210000502
:1001300012011001EF020108EB034E200100010241
:10014000DC0111241FBECFEFDAE0DEBFCDBF12E02D
:10015000A0E0B1E0EEE2F8E102C005900D92A63118
:10016000B107D9F722E0A6E1B2E001C01D92AD349B
:10017000B207E1F79FD10C94150C42CF1F920F925A
:100180000FB60F9211248F931B9B0AC08091160209
:10019000811104C081E08093160202C01092160201
:1001A0008F910F900FBE0F901F9018950895269A6B
:1001B000E0E8F0E0808182628083E1E8F0E0808125
:1001C00085618083E6E8F0E08AE196E091838083B0
:1001D000808191819695879590938B0080938A007A
:1001E000089574D148D034D0E2DF27D078940895B0
:1001F0001F920F920FB60F9211248F939F93AF937C
:10020000BF9380911D0290911E02A0911F02B09198
:1002100020020196A11DB11D80931D0290931E0224
:10022000A0931F02B0932002BF91AF919F918F9135
:100230000F900FBE0F901F901895239885B189607D
:1002400085B981E08093680089E080936B00089510
:100250003F9A559A209A0895109290008DE08093CD
:10026000910089E09DE3909399008093980082E04B
:10027000809371000895109290008BE0809391001C
:100280008AEF90E0909399008093980082E08093A9
:10029000710008958130910511F4479A01C0479883
:1002A00090931A02809319020895809119029091F7
:1002B0001A02019719F480E090E002C081E090E01A
:1002C000E9CF8130910511F45D9801C05D9A90935A
:1002D0001C0280931B02089580911B0290911C02C6
:1002E000019719F480E090E002C081E090E0E9CF4E
:1002F0008130910511F4289801C0289A9093180232
:100300008093170208958091170290911802019727
:1003100019F480E090E002C081E090E0E9CF813004
:10032000910511F45E9A01C05E9890931802809333
:10033000170208958130910511F42E9A01C02E986C
:1003400090931802809317020895F89480911D02EB
:1003500090911E0278940895F89410921D021092C4
:100360001E0210921F0210922002789408958BE1D1
:1003700091E0C5C78F3F2FEF920759F09F938F935E
:1003800083E391E09F938F93A9D70F900F900F90E5
:100390000F9008958F3F2FEF920759F09F938F93FF
:1003A0008DE591E09F938F9399D70F900F900F90C9
:1003B0000F90089586E891E0A2C78EE991E09FC76B
:1003C000A0E0B0E0E5EEF1E0FDC60DB71EB720916C
:1003D0002102223070F4809130021F928F938FEBB4
:1003E00091E09F938F937AD70F900F900F900F907B
:1003F00007C080913102803231F084EE91E07FD7E6
:100400008FEF9FEF1BC030E0C90102974DB75EB779
:10041000481B590B0FB6F8945EBF0FBE4DBF8DB78A
:100420009EB70196E2E3F2E0DC0141914D93AF010A
:100430004053524024173507C4F7EDD60FB6F89451
:100440001EBF0FBE0DBFE4E0D9C6809130028037D9
:1004500069F030F4853661F0873679F4AEDF0DC08F
:10046000823749F08A3749F4A5DF07C080DF05C02D
:10047000A7DF80DF02C0A4DF8DDF10922102089584
:100480008091470290914802EBD68F3F2FEF920761
:1004900081F0209121028D30910519F4222349F039
:1004A000D4CFE22FF0E0E05DFD4F80832F5F2093FB
:1004B0002102089596DE06D0809116028823D9F392
:1004C000DFDFF9CF80E091E093D3EAC284B7877F82
:1004D00084BF88E10FB6F8948093600010926000AA
:1004E0000FBE90E080E80FB6F8948093610090937F
:1004F00061000FBE57D062E272E080E091E0CCD3A1
:10050000E7E4F2E082E292E0938382839183808346
:1005100008950895089580E091E0DCC280E091E0C4
:10052000CFC308950F931F93CF93DF934BD052D037
:10053000C8EDD0E088818F77888388818068888340
:1005400088818F7D888319BC10923E0210923A02F6
:1005500010923C0210923B0200EE10E0F801808104
:100560008B7F808388818160888342E060E080E0C7
:100570004DD5E1EEF0E080818E7F8083E2EEF0E009
:10058000808181608083808188608083F8018081A0
:100590008E7F8083888180618883DF91CF911F91D6
:1005A0000F910895E8EDF0E080818F7E8083E7ED84
:1005B000F0E080818160808384E082BF81E080936D
:1005C0003D02B0CFE8EDF0E080818E7F8083109215
:1005D000E20008951092DA001092E10008951F924F
:1005E0000F920FB60F9211242F933F934F935F9367
:1005F0006F937F938F939F93AF93BF93EF93FF93EB
:100600008091E10082FF0AC08091E20082FF06C073
:100610008091E1008B7F8093E10041D28091DA00EC
:1006200080FF1DC08091D80080FF19C08091DA0042
:100630008E7F8093DA008091D90080FF0CC080E12A
:1006400089BD82E189BD09B400FEFDCF81E08093C0
:100650003E025FDF04C019BC10923E025BDF809156
:10066000E10080FF18C08091E20080FF14C08091FB
:10067000E2008E7F8093E2008091E20080618093AF
:10068000E2008091D80080628093D80019BC85E098
:1006900080933E0204D28091E10084FF2FC08091BC
:1006A000E20084FF2BC080E189BD82E189BD09B4ED
:1006B00000FEFDCF8091D8008F7D8093D80080917F
:1006C000E1008F7E8093E1008091E2008F7E809335
:1006D000E2008091E20081608093E20080913A0222
:1006E000882311F084E007C08091E30087FD02C0F9
:1006F00081E001C083E080933E02D1D18091E1008E
:1007000083FF27C08091E20083FF23C08091E10036
:10071000877F8093E10082E080933E0210923A024C
:100720008091E1008E7F8093E1008091E2008E7FD6
:100730008093E2008091E20080618093E20042E0D9
:1007400060E080E063D48091F00088608093F000E6
:10075000A6D1FF91EF91BF91AF919F918F917F9122
:100760006F915F914F913F912F910F900FBE0F901E
:100770001F9018951F920F920FB60F9211242F936E
:100780003F934F935F936F937F938F939F93AF9319
:10079000BF93CF93DF93EF93FF93C091E900CF70A6
:1007A0008091EC00D82FD17080FDD0E81092E90044
:1007B0008091F000877F8093F00078941ED0109293
:1007C000E9008091F00088608093F000CD2BCF701D
:1007D000C093E900FF91EF91DF91CF91BF91AF916D
:1007E0009F918F917F916F915F914F913F912F9149
:1007F0000F900FBE0F901F9018951F93CF93DF930C
:10080000CDB7DEB7AA970FB6F894DEBF0FBECDBF47
:10081000EFE3F2E088E08E0F9091F10091938E1358
:10082000FBCF7CDE8091E80083FF21C180913F02F5
:1008300090914002953009F478C030F4913081F104
:1008400068F0933069F113C1983009F4E2C099302F
:1008500009F4F1C0963009F00AC189C0803881F0EE
:10086000823809F004C1809143028F708093E900BF
:100870008091EB0085FB882780F91092E90006C083
:1008800080913B0290913C02911182609091E8002E
:10089000977F9093E8008093F1001092F100C4C01C
:1008A000282F2D7F09F0E3C0882319F0823061F0F2
:1008B000DEC080914102813009F0D9C0933009F047
:1008C00080E080933C022BC080914102811127C0BF
:1008D000809143028F7009F4CAC08093E90020918F
:1008E000EB0020FF1CC0933021F48091EB0080626C
:1008F00014C09091EB0090619093EB0021E030E008
:10090000A90102C0440F551F8A95E2F74093EA00FF
:100910001092EA008091EB0088608093EB001092C7
:10092000E9008091E800877F82C08111A0C010910A
:1009300041021F778091E3008078812B8093E30050
:100940008091E800877F8093E800DDD38091E80004
:1009500080FFFCCF8091E30080688093E300111159
:1009600002C082E001C083E080933E0280C08058D4
:10097000823008F07CC080914102909142028C3D0F
:1009800053E0950771F583E08A838AE289834FB744
:10099000F894DE01139620E03EE051E2E32FF0E010
:1009A00050935700E49120FF03C0E295EF703F5F42
:1009B000EF708E2F90E0EA3010F0C79601C0C0961D
:1009C0008D939D932F5F243149F74FBF8091E800AD
:1009D000877F8093E8006AE270E0CE01019652D2F0
:1009E00012C0AE014F5F5F4F6091430219D2BC014C
:1009F000892B09F43CC09091E800977F9093E80020
:100A000089819A81A2D28091E8008B778093E80057
:100A10002EC0803861F58091E800877F8093E800E0
:100A200080913A028093F1008091E8008E77809364
:100A3000E80069D31CC081111AC090914102923024
:100A4000B0F48091E800877F8093E80090933A02A9
:100A50005AD380913A02811106C08091E30087FD4C
:100A600002C081E001C084E080933E0254DD8091A9
:100A7000E80083FF0AC08091E800877F8093E80048
:100A80008091EB0080628093EB00AA960FB6F894F9
:100A9000DEBF0FBECDBFDF91CF911F9108950895A6
:100AA000CF9380913E02882399F0C091E900CF70E6
:100AB0009091EC00892F817090FD80E8C82B1092F6
:100AC000E9008091E80083FD98DECF70C093E900D3
:100AD000CF910895CF93DF93EC01FC0170968BE0EA
:100AE000DF011D928A95E9F782E08C83898783E094
:100AF0008E8761E0CE010196BED2882361F061E06D
:100B0000CE010696B8D2882331F061E0CE010B9673
:100B1000DF91CF91B0C280E0DF91CF9108950F9324
:100B20001F93CF9320913E022430F9F4FC010489F5
:100B3000158926893789012B022B032BB1F0C62F8B
:100B400081818F708093E9008091E80085FF04C067
:100B5000C093F10080E00AC08091E8008E77809316
:100B6000E800F0D28823A1F301C082E0CF911F9169
:100B70000F910895FB01682F84859585D0DF21E0D2
:100B800030E0811102C020E030E088279927821BE5
:100B9000930B089520913E02243041F5FC014489D5
:100BA000558966897789452B462B472BF9F081813A
:100BB0008F708093E9002091F3008091F20090E023
:100BC000922B892B89F09091E8008091E8008E7734
:100BD0008093E80095FD08C0B5D2811108C08091CE
:100BE000E8008E778093E80080E0089582E0089521
:100BF00020913E02243089F4FC014489558966899C
:100C00007789452B462B472B41F021812F7020936C
:100C1000E9002091E80020FDBDCF089520913E021B
:100C2000243019F08FEF9FEF0895FC014489558916
:100C300066897789452B462B472BA1F386818F70D8
:100C40008093E9008091E80082FFECCF2091F300CF
:100C50008091F20090E0922B892B21F02091F100FD
:100C600030E002C02FEF3FEF4091F3008091F2009F
:100C700090E0942B892B29F48091E8008B77809366
:100C8000E800C9010895FC0184859585C7DF97FFB9
:100C900002C08EEF9FEF0895FB012EE0DB011D9255
:100CA0002A95E9F723E023832AEB35E03187208773
:100CB00023E436E033872287958784870895089553
:100CC000CF93DF93EC018091E80083FFA6C0888179
:100CD00090E020914302309144022817390709F02F
:100CE0009CC080914002813261F020F4803209F48E
:100CF0003EC093C0823209F46CC0833209F47DC0D7
:100D00008CC080913F02813A09F087C08091E80051
:100D1000877F8093E8008091E80080FFFCCF8C897A
:100D20009D89AE89BF898093F100492F5A2F6B2F7F
:100D300077274093F100AD01662777274093F100B4
:100D40008B2F9927AA27BB278093F100888D80934A
:100D5000F100898D8093F1008A8D8093F10080915C
:100D6000E8008E778093E800DF91CF91CCC180912D
:100D70003F02813209F051C08091E800877F809363
:100D8000E8008091E80082FD05C080913E0281115B
:100D9000F8CF43C03091F1002091F1009091F10023
:100DA0008091F1003C8B2D8B9E8B8F8B8091F1007D
:100DB000888F8091F100898F8091F1008A8F8091D6
:100DC000E8008B778093E8009ED1CE01DF91CF9130
:100DD00076CF80913F02813201F58091E800877FD4
:100DE0008093E80090D18091410290914202998BCA
:100DF000888BCE01DF91CF9194CB80913F028132DD
:100E000061F48091E800877F8093E8007CD1609155
:100E10004102CE01DF91CF9152CFDF91CF91089562
:100E2000292F33272230310559F02330310569F05D
:100E300021303105F9F482E190E020E331E01EC079
:100E40008EE390E022EF30E019C0992781309105C0
:100E500041F08230910541F0892B61F4EEEEF0E033
:100E600005C0E4EDF0E002C0ECEAF0E0849190E02F
:100E70009F0104C080E090E020E030E0FA0131837F
:100E800020830895209145023091460226173707A6
:100E900048F06115710539F42091E8002E77209310
:100EA000E80001C0B90140E061157105A9F1209188
:100EB0003E02222309F443C0253009F442C02091A8
:100EC000E80023FD40C02091E80022FD32C02091BF
:100ED000E80020FFE9CF4091F3002091F20030E0DC
:100EE000342BFC01CF016115710559F02830310513
:100EF00040F481918093F100615071092F5F3F4F61
:100F0000F1CF41E02830310509F040E02091E800C0
:100F10002E772093E800C8CF4111C9CF0AC0809135
:100F20003E02882361F0853061F08091E80083FD06
:100F30000AC08091E80082FFF2CF80E0089582E04D
:100F4000089583E0089581E008952091450230914D
:100F500046022617370748F06115710539F42091CC
:100F6000E8002E772093E80001C0B901FC0120E0E1
:100F70006115710591F180913E02882309F440C00A
:100F8000853009F43FC08091E80083FD3DC0809129
:100F9000E80082FD2FC08091E80080FFE9CF20911A
:100FA000F3008091F20090E0922B6115710559F0E9
:100FB0008830910540F424912093F10031966150DE
:100FC00071090196F2CF21E0089709F020E08091A5
:100FD000E8008E778093E800CBCF2111CCCF0AC0F8
:100FE00080913E02882361F0853061F08091E800B5
:100FF00083FD0AC08091E80082FFF2CF80E008956F
:1010000082E0089583E0089581E00895982F973055
:1010100058F59093E900981739F07091EC00209101
:10102000ED005091F00003C0242F762F50E021FFF7
:1010300019C03091EB003E7F3093EB003091ED0012
:101040003D7F3093ED003091EB0031603093EB0049
:101050007093EC002093ED005093F0002091EE008F
:1010600027FF07C09F5FD3CF8F708093E90081E097
:10107000089580E00895EF92FF920F931F93CF930E
:10108000DF93E62EEC018C010C5F1F4FF12CFE1458
:1010900091F15881552351F1F801208169817A81BC
:1010A00031979081852F8F70873010F080E024C0B9
:1010B000223010F442E001C046E0E8E0F0E020E039
:1010C000E617F70720F42F5FEE0FFF1FF9CF2295E9
:1010D000207F422BF0E49F9F90011124551F55273C
:1010E000551F652F622B92DF882301F3F394259619
:1010F0000B5F1F4FCCCF81E0DF91CF911F910F91FC
:10110000FF90EF90089580913F0287FF11C080917A
:10111000E80082FD05C080913E028111F8CF11C028
:101120008091E8008B770BC080913E02882349F0C4
:101130008091E80080FFF8CF8091E8008E7780935F
:10114000E80008952091E4003091E50095E6409193
:10115000EC00842F817040FF22C08091E80080FD68
:101160001CC080913E02882391F0853091F08091DF
:10117000EB0085FD10C04091E4005091E50042175E
:10118000530729F39A01915011F784E0089582E002
:10119000089583E0089581E0089580E008954091E6
:1011A000E80042FFDECF08952F923F924F925F9268
:1011B0006F927F928F929F92AF92BF92CF92DF9267
:1011C000EF92FF920F931F93CF93DF93CDB7DEB7CC
:1011D000CA1BDB0B0FB6F894DEBF0FBECDBF099460
:1011E0002A88398848885F846E847D848C849B84B7
:1011F000AA84B984C884DF80EE80FD800C811B81C5
:10120000AA81B981CE0FD11D0FB6F894DEBF0FBEF3
:10121000CDBFED010895FC0188279927E89421911D
:101220002032E9F3293010F02E30C8F32B3239F098
:101230002D3231F4689403C00BD0820F911D21919F
:1012400020532A30C8F31EF4909581959F4F08953E
:101250007AE0979F902D879F802D910D11240895FE
:10126000CF93DF93EC012B8120FF33C026FF0AC010
:101270002F7B2B838E819F8101969F838E838A8112
:1012800090E029C022FF0FC0E881F9818081992771
:1012900087FD9095009719F420622B831AC0319630
:1012A000F983E8830EC0EA85FB85099597FF09C09D
:1012B0002B81019611F480E101C080E2822B8B83A7
:1012C00008C02E813F812F5F3F4F3F832E83992798
:1012D00002C08FEF9FEFDF91CF910895A0E0B0E0C3
:1012E000E3E7F9E071CFFE01359661917191AF01AD
:1012F0008091490290914A022FD0E2E081CF0F9372
:101300001F93CF93DF93E0914902F0914A0223812A
:1013100021FF1BC0EC0100E010E0899160914902BF
:1013200070914A02DB011896ED91FC911997882380
:1013300031F00995892B89F30FEF1FEFEECF8AE08B
:101340000995892B11F4C80102C08FEF9FEFDF913F
:10135000CF911F910F910895ACE0B0E0E1EBF9E07F
:1013600023CF7C016B018A01FC01178216828381E5
:1013700081FFB0C1CE0101964C01F7019381F601C6
:1013800093FD859193FF81916F01882309F49EC19C
:10139000853239F493FD859193FF81916F018532F8
:1013A00021F4B70190E0B1D1E8CF512C312C20E0ED
:1013B0002032A0F48B3269F030F4803259F083325D
:1013C00069F420612CC08D3239F0803339F421600A
:1013D00026C02260246023C0286021C027FD27C0CA
:1013E00030ED380F3A3078F426FF06C0FAE05F9E01
:1013F000300D1124532E13C08AE0389E300D112475
:10140000332E20620CC08E3221F426FD5FC1206491
:1014100006C08C3611F4206802C0883641F4F6010B
:1014200093FD859193FF81916F018111C1CF982F19
:101430009F7D9554933028F40C5F1F4FFFE3F98391
:101440000DC0833631F0833771F0833509F057C012
:1014500021C0F801808189830E5F1F4F442443948B
:10146000512C540114C03801F2E06F0E711CF801C8
:10147000A080B18026FF03C0652D70E002C06FEF31
:101480007FEFC5012C8736D12C0183012C852F7766
:10149000222E16C03801F2E06F0E711CF801A080F8
:1014A000B18026FF03C0652D70E002C06FEF7FEFB3
:1014B000C5012C8714D12C012C852068222E830194
:1014C00023FC19C0832D90E048165906A0F4B701FB
:1014D00080E290E01AD13A94F5CFF50127FC85918E
:1014E00027FE81915F01B70190E00FD131103A944E
:1014F000F1E04F1A51084114510479F7DEC08436E7
:1015000011F0893631F5F80127FF07C0608171813C
:10151000828193810C5F1F4F08C060817181882791
:1015200077FD8095982F0E5F1F4F2F76B22E97FF75
:1015300009C090958095709561957F4F8F4F9F4F13
:101540002068B22E2AE030E0A40111D1A82EA818FC
:1015500043C0853729F42F7EB22E2AE030E025C023
:10156000F22FF97FBF2E8F36C1F018F4883579F04D
:10157000ADC0803719F0883721F0A8C02F2F206127
:10158000B22EB4FE0DC08B2D8460B82E09C024FF8E
:101590000AC09F2F9660B92E06C028E030E005C033
:1015A00020E130E002C020E132E0F801B7FE07C0E0
:1015B00060817181828193810C5F1F4F06C06081C1
:1015C000718180E090E00E5F1F4FA401D0D0A82E63
:1015D000A818FB2DFF77BF2EB6FE0BC02B2D2E7F3C
:1015E000A51450F4B4FE0AC0B2FC08C02B2D2E7E08
:1015F00005C07A2C2B2D03C07A2C01C0752C24FF3A
:101600000DC0FE01EA0DF11D8081803311F4297EA9
:1016100009C022FF06C07394739404C0822F867899
:1016200009F0739423FD12C020FF06C05A2C7314D6
:1016300018F4530C5718732C731460F4B70180E23C
:1016400090E02C8762D073942C85F6CF731410F43D
:10165000371801C0312C24FF11C0B70180E390E09E
:101660002C8753D02C8522FF16C021FF03C088E5AC
:1016700090E002C088E790E0B7010CC0822F867826
:1016800051F021FD02C080E201C08BE227FD8DE216
:10169000B70190E03AD0A51430F4B70180E390E0B0
:1016A00034D05A94F8CFAA94F401EA0DF11D808148
:1016B000B70190E02AD0A110F6CF332009F45DCE17
:1016C000B70180E290E021D03A94F7CFF70186810C
:1016D000978102C08FEF9FEF2C96E2E181CDFC0154
:1016E0000590615070400110D8F7809590958E0F4D
:1016F0009F1F0895FC016150704001900110D8F7C0
:10170000809590958E0F9F1F08950F931F93CF93F1
:10171000DF93182F092FEB018B8181FD03C08FEF21
:101720009FEF20C082FF10C04E815F812C813D81E0
:10173000421753077CF4E881F9819F012F5F3F4FE7
:1017400039832883108306C0E885F985812F0995A0
:10175000892B29F72E813F812F5F3F4F3F832E83B7
:10176000812F902FDF91CF911F910F910895FA0152
:10177000AA27283051F1203181F1E8946F936E7FD0
:101780006E5F7F4F8F4F9F4FAF4FB1E03ED0B4E0C1
:101790003CD0670F781F891F9A1FA11D680F791F02
:1017A0008A1F911DA11D6A0F711D811D911DA11D13
:1017B00020D009F468943F912AE0269F1124301923
:1017C000305D3193DEF6CF010895462F4770405DBE
:1017D0004193B3E00FD0C9F7F6CF462F4F70405D6D
:1017E0004A3318F0495D31FD4052419302D0A9F7C8
:1017F000EACFB4E0A6959795879577956795BA95C2
:10180000C9F700976105710508959B01AC010A2E87
:1018100006945795479537952795BA95C9F7620F5E
:0E182000731F841F951FA01D0895F894FFCF1D
:10182E000083100000010410000001820800000176
:10183E00000000000000000000000052756E6E698E
:10184E006E6720636F6D6D616E643A205072696EC3
:10185E00740D0052756E6E696E6720636F6D6D61EB
:10186E006E643A20436F6E666967204578706572C4
:10187E00696D656E7420282569290D0A0052756EF2
:10188E006E696E6720636F6D6D616E643A20436F93
:10189E006E66696720477265656E204C4544202848
:1018AE002569290D0A0052756E6E696E6720636F89
:1018BE006D6D616E643A2052657365740D005275DC
:1018CE006E6E696E6720636F6D6D616E643A205245
:1018DE00756E204578706572696D656E740D004386
:1018EE006F6D6D616E642028256329207265717598
:1018FE006972657320616E20617267756D656E74B5
:10190E00210D0A00506C6561736520757365206149
:10191E00207370616365206265747765656E206300
:10192E006F6D6D616E6420616E6420617267756D9E
:06193E00656E74210D002E
:00000001FF
